{"abi":[{"type":"constructor","inputs":[],"stateMutability":"nonpayable"},{"type":"function","name":"MIN_STAKE","inputs":[],"outputs":[{"name":"","type":"uint256","internalType":"uint256"}],"stateMutability":"view"},{"type":"function","name":"acknowledgeNotification","inputs":[{"name":"campaignId","type":"uint256","internalType":"uint256"}],"outputs":[],"stateMutability":"nonpayable"},{"type":"function","name":"addStake","inputs":[],"outputs":[],"stateMutability":"payable"},{"type":"function","name":"campaignCount","inputs":[],"outputs":[{"name":"","type":"uint256","internalType":"uint256"}],"stateMutability":"view"},{"type":"function","name":"campaignResults","inputs":[{"name":"","type":"uint256","internalType":"uint256"}],"outputs":[{"name":"","type":"string","internalType":"string"}],"stateMutability":"view"},{"type":"function","name":"campaigns","inputs":[{"name":"","type":"uint256","internalType":"uint256"}],"outputs":[{"name":"id","type":"uint256","internalType":"uint256"},{"name":"title","type":"string","internalType":"string"},{"name":"startTime","type":"uint256","internalType":"uint256"},{"name":"endTime","type":"uint256","internalType":"uint256"},{"name":"resultsPublished","type":"bool","internalType":"bool"},{"name":"winningOption","type":"uint256","internalType":"uint256"},{"name":"totalLosingPool","type":"uint256","internalType":"uint256"},{"name":"totalWinningStake","type":"uint256","internalType":"uint256"}],"stateMutability":"view"},{"type":"function","name":"claimReward","inputs":[{"name":"campaignId","type":"uint256","internalType":"uint256"}],"outputs":[],"stateMutability":"nonpayable"},{"type":"function","name":"getCampaignOptions","inputs":[{"name":"campaignId","type":"uint256","internalType":"uint256"}],"outputs":[{"name":"","type":"string[]","internalType":"string[]"}],"stateMutability":"view"},{"type":"function","name":"getCampaignStatus","inputs":[{"name":"campaignId","type":"uint256","internalType":"uint256"}],"outputs":[{"name":"","type":"string","internalType":"string"}],"stateMutability":"view"},{"type":"function","name":"getLockedStake","inputs":[{"name":"voter","type":"address","internalType":"address"}],"outputs":[{"name":"","type":"uint256","internalType":"uint256"}],"stateMutability":"view"},{"type":"function","name":"getNotifications","inputs":[{"name":"user","type":"address","internalType":"address"}],"outputs":[{"name":"","type":"tuple[]","internalType":"struct VottingSystem.Notification[]","components":[{"name":"campaignId","type":"uint256","internalType":"uint256"},{"name":"acknowledged","type":"bool","internalType":"bool"}]}],"stateMutability":"view"},{"type":"function","name":"getPotentialReward","inputs":[{"name":"voter","type":"address","internalType":"address"},{"name":"campaignId","type":"uint256","internalType":"uint256"}],"outputs":[{"name":"","type":"uint256","internalType":"uint256"}],"stateMutability":"view"},{"type":"function","name":"getSubscriberInfo","inputs":[{"name":"subscriber","type":"address","internalType":"address"}],"outputs":[{"name":"","type":"bytes32","internalType":"bytes32"},{"name":"","type":"bytes32","internalType":"bytes32"},{"name":"","type":"bytes32","internalType":"bytes32"},{"name":"","type":"uint256","internalType":"uint256"},{"name":"","type":"bool","internalType":"bool"}],"stateMutability":"view"},{"type":"function","name":"getVotes","inputs":[{"name":"campaignId","type":"uint256","internalType":"uint256"},{"name":"optionIndex","type":"uint256","internalType":"uint256"}],"outputs":[{"name":"","type":"uint256","internalType":"uint256"}],"stateMutability":"view"},{"type":"function","name":"getVotingPower","inputs":[{"name":"voter","type":"address","internalType":"address"}],"outputs":[{"name":"","type":"uint256","internalType":"uint256"}],"stateMutability":"view"},{"type":"function","name":"hasVoted","inputs":[{"name":"campaignId","type":"uint256","internalType":"uint256"},{"name":"voter","type":"address","internalType":"address"}],"outputs":[{"name":"","type":"bool","internalType":"bool"}],"stateMutability":"view"},{"type":"function","name":"launchCampaign","inputs":[{"name":"title","type":"string","internalType":"string"},{"name":"options","type":"string[]","internalType":"string[]"},{"name":"startTime","type":"uint256","internalType":"uint256"},{"name":"durationInHours","type":"uint256","internalType":"uint256"}],"outputs":[],"stateMutability":"nonpayable"},{"type":"function","name":"lockedStake","inputs":[{"name":"","type":"address","internalType":"address"}],"outputs":[{"name":"","type":"uint256","internalType":"uint256"}],"stateMutability":"view"},{"type":"function","name":"owner","inputs":[],"outputs":[{"name":"","type":"address","internalType":"address"}],"stateMutability":"view"},{"type":"function","name":"publishResults","inputs":[{"name":"campaignId","type":"uint256","internalType":"uint256"}],"outputs":[],"stateMutability":"nonpayable"},{"type":"function","name":"recoverETH","inputs":[{"name":"amount","type":"uint256","internalType":"uint256"}],"outputs":[],"stateMutability":"nonpayable"},{"type":"function","name":"subscribe","inputs":[{"name":"userNameHash","type":"bytes32","internalType":"bytes32"},{"name":"contactHash","type":"bytes32","internalType":"bytes32"},{"name":"emailHash","type":"bytes32","internalType":"bytes32"}],"outputs":[],"stateMutability":"payable"},{"type":"function","name":"subscriberAddresses","inputs":[{"name":"","type":"uint256","internalType":"uint256"}],"outputs":[{"name":"","type":"address","internalType":"address"}],"stateMutability":"view"},{"type":"function","name":"subscribers","inputs":[{"name":"","type":"address","internalType":"address"}],"outputs":[{"name":"userNameHash","type":"bytes32","internalType":"bytes32"},{"name":"contactHash","type":"bytes32","internalType":"bytes32"},{"name":"emailHash","type":"bytes32","internalType":"bytes32"},{"name":"stakedAmount","type":"uint256","internalType":"uint256"},{"name":"isActive","type":"bool","internalType":"bool"}],"stateMutability":"view"},{"type":"function","name":"totalStaked","inputs":[],"outputs":[{"name":"","type":"uint256","internalType":"uint256"}],"stateMutability":"view"},{"type":"function","name":"unsubscribe","inputs":[],"outputs":[],"stateMutability":"nonpayable"},{"type":"function","name":"updateSubscriberInfo","inputs":[{"name":"newUserNameHash","type":"bytes32","internalType":"bytes32"},{"name":"newContactHash","type":"bytes32","internalType":"bytes32"},{"name":"newEmailHash","type":"bytes32","internalType":"bytes32"}],"outputs":[],"stateMutability":"nonpayable"},{"type":"function","name":"userNotifications","inputs":[{"name":"","type":"address","internalType":"address"},{"name":"","type":"uint256","internalType":"uint256"}],"outputs":[{"name":"campaignId","type":"uint256","internalType":"uint256"},{"name":"acknowledged","type":"bool","internalType":"bool"}],"stateMutability":"view"},{"type":"function","name":"vote","inputs":[{"name":"campaignId","type":"uint256","internalType":"uint256"},{"name":"optionIndex","type":"uint256","internalType":"uint256"}],"outputs":[],"stateMutability":"nonpayable"},{"type":"function","name":"withdrawStake","inputs":[{"name":"amount","type":"uint256","internalType":"uint256"}],"outputs":[],"stateMutability":"nonpayable"},{"type":"event","name":"CampaignLaunched","inputs":[{"name":"campaignId","type":"uint256","indexed":true,"internalType":"uint256"},{"name":"title","type":"string","indexed":false,"internalType":"string"},{"name":"startTime","type":"uint256","indexed":false,"internalType":"uint256"},{"name":"endTime","type":"uint256","indexed":false,"internalType":"uint256"}],"anonymous":false},{"type":"event","name":"NotificationAcknowledged","inputs":[{"name":"campaignId","type":"uint256","indexed":true,"internalType":"uint256"},{"name":"subscriber","type":"address","indexed":true,"internalType":"address"}],"anonymous":false},{"type":"event","name":"NotificationSent","inputs":[{"name":"campaignId","type":"uint256","indexed":true,"internalType":"uint256"},{"name":"subscriber","type":"address","indexed":true,"internalType":"address"}],"anonymous":false},{"type":"event","name":"ResultsPublished","inputs":[{"name":"campaignId","type":"uint256","indexed":true,"internalType":"uint256"},{"name":"result","type":"string","indexed":false,"internalType":"string"},{"name":"totalLosingPool","type":"uint256","indexed":false,"internalType":"uint256"}],"anonymous":false},{"type":"event","name":"RewardClaimed","inputs":[{"name":"voter","type":"address","indexed":true,"internalType":"address"},{"name":"campaignId","type":"uint256","indexed":false,"internalType":"uint256"},{"name":"amount","type":"uint256","indexed":false,"internalType":"uint256"}],"anonymous":false},{"type":"event","name":"StakeAdded","inputs":[{"name":"subscriber","type":"address","indexed":true,"internalType":"address"},{"name":"amount","type":"uint256","indexed":false,"internalType":"uint256"}],"anonymous":false},{"type":"event","name":"StakeLocked","inputs":[{"name":"subscriber","type":"address","indexed":true,"internalType":"address"},{"name":"amount","type":"uint256","indexed":false,"internalType":"uint256"},{"name":"campaignId","type":"uint256","indexed":false,"internalType":"uint256"}],"anonymous":false},{"type":"event","name":"StakeWithdrawn","inputs":[{"name":"subscriber","type":"address","indexed":true,"internalType":"address"},{"name":"amount","type":"uint256","indexed":false,"internalType":"uint256"}],"anonymous":false},{"type":"event","name":"Subscribed","inputs":[{"name":"subscriber","type":"address","indexed":true,"internalType":"address"},{"name":"amount","type":"uint256","indexed":false,"internalType":"uint256"}],"anonymous":false},{"type":"event","name":"Unsubscribed","inputs":[{"name":"subscriber","type":"address","indexed":true,"internalType":"address"}],"anonymous":false},{"type":"event","name":"Voted","inputs":[{"name":"campaignId","type":"uint256","indexed":true,"internalType":"uint256"},{"name":"voter","type":"address","indexed":false,"internalType":"address"},{"name":"optionIndex","type":"uint256","indexed":false,"internalType":"uint256"},{"name":"votingPower","type":"uint256","indexed":false,"internalType":"uint256"}],"anonymous":false}],"bytecode":{"object":"0x6080604052348015600e575f5ffd5b50335f5f6101000a81548173ffffffffffffffffffffffffffffffffffffffff021916908373ffffffffffffffffffffffffffffffffffffffff160217905550614fda8061005b5f395ff3fe6080604052600436106101cc575f3560e01c80638a8f63b0116100f6578063b384abef11610094578063c978be9d11610063578063c978be9d146106e4578063cb1c2b5c14610720578063d33355531461074a578063fcae448414610772576101cc565b8063b384abef14610630578063bb4d443614610658578063bcdab75714610694578063bfad9cc0146106bc576101cc565b806391f36633116100d057806391f36633146105545780639e2c63da14610590578063a5431c9c146105cc578063ae169a5014610608576101cc565b80638a8f63b0146104d25780638cab04ab1461050e5780638da5cb5b1461052a576101cc565b8063438596321161016e5780636c19e0041161013d5780636c19e0041461040257806370f35e7c1461043e5780637274e30d1461047e578063817b1cd2146104a8576101cc565b806343859632146103545780635745ae28146103905780635a627dbc146103d05780635e2b1197146103da576101cc565b806325d5971f116101aa57806325d5971f1461028b578063332a0aa2146102b3578063336bfa72146102ef57806338c9191014610317576101cc565b806306f4080c146101d0578063141961bc1461020c57806315c6b0781461024f575b5f5ffd5b3480156101db575f5ffd5b506101f660048036038101906101f19190613505565b610788565b60405161020391906135a0565b60405180910390f35b348015610217575f5ffd5b50610232600480360381019061022d9190613505565b610823565b6040516102469897969594939291906135e9565b60405180910390f35b34801561025a575f5ffd5b50610275600480360381019061027091906136c6565b6108f9565b60405161028291906136f1565b60405180910390f35b348015610296575f5ffd5b506102b160048036038101906102ac9190613505565b61090e565b005b3480156102be575f5ffd5b506102d960048036038101906102d49190613505565b610b78565b6040516102e69190613719565b60405180910390f35b3480156102fa575f5ffd5b5061031560048036038101906103109190613940565b610bb3565b005b348015610322575f5ffd5b5061033d600480360381019061033891906139dc565b610f92565b60405161034b929190613a1a565b60405180910390f35b34801561035f575f5ffd5b5061037a60048036038101906103759190613a41565b610fd8565b6040516103879190613a7f565b60405180910390f35b34801561039b575f5ffd5b506103b660048036038101906103b191906136c6565b611083565b6040516103c7959493929190613ab0565b60405180910390f35b6103d86110c1565b005b3480156103e5575f5ffd5b5061040060048036038101906103fb9190613505565b61124d565b005b34801561040d575f5ffd5b5061042860048036038101906104239190613505565b6114d8565b60405161043591906135a0565b60405180910390f35b348015610449575f5ffd5b50610464600480360381019061045f91906136c6565b611659565b604051610475959493929190613ab0565b60405180910390f35b348015610489575f5ffd5b506104926117da565b60405161049f91906136f1565b60405180910390f35b3480156104b3575f5ffd5b506104bc6117e0565b6040516104c991906136f1565b60405180910390f35b3480156104dd575f5ffd5b506104f860048036038101906104f391906136c6565b6117e6565b6040516105059190613bf4565b60405180910390f35b61052860048036038101906105239190613c3e565b6118a2565b005b348015610535575f5ffd5b5061053e611af4565b60405161054b9190613719565b60405180910390f35b34801561055f575f5ffd5b5061057a60048036038101906105759190613c8e565b611b18565b60405161058791906136f1565b60405180910390f35b34801561059b575f5ffd5b506105b660048036038101906105b191906136c6565b611b8b565b6040516105c391906136f1565b60405180910390f35b3480156105d7575f5ffd5b506105f260048036038101906105ed91906139dc565b611bd1565b6040516105ff91906136f1565b60405180910390f35b348015610613575f5ffd5b5061062e60048036038101906106299190613505565b611d2f565b005b34801561063b575f5ffd5b5061065660048036038101906106519190613c8e565b61241b565b005b348015610663575f5ffd5b5061067e600480360381019061067991906136c6565b6129a8565b60405161068b91906136f1565b60405180910390f35b34801561069f575f5ffd5b506106ba60048036038101906106b59190613c3e565b612a39565b005b3480156106c7575f5ffd5b506106e260048036038101906106dd9190613505565b612b25565b005b3480156106ef575f5ffd5b5061070a60048036038101906107059190613505565b612f08565b6040516107179190613dcf565b60405180910390f35b34801561072b575f5ffd5b50610734613036565b60405161074191906136f1565b60405180910390f35b348015610755575f5ffd5b50610770600480360381019061076b9190613505565b613042565b005b34801561077d575f5ffd5b50610786613187565b005b6008602052805f5260405f205f9150905080546107a490613e1c565b80601f01602080910402602001604051908101604052809291908181526020018280546107d090613e1c565b801561081b5780601f106107f25761010080835404028352916020019161081b565b820191905f5260205f20905b8154815290600101906020018083116107fe57829003601f168201915b505050505081565b6007602052805f5260405f205f91509050805f01549080600101805461084890613e1c565b80601f016020809104026020016040519081016040528092919081815260200182805461087490613e1c565b80156108bf5780601f10610896576101008083540402835291602001916108bf565b820191905f5260205f20905b8154815290600101906020018083116108a257829003601f168201915b505050505090806003015490806004015490806005015f9054906101000a900460ff16908060060154908060070154908060080154905088565b6005602052805f5260405f205f915090505481565b60025f3373ffffffffffffffffffffffffffffffffffffffff1673ffffffffffffffffffffffffffffffffffffffff1681526020019081526020015f206004015f9054906101000a900460ff1661099a576040517f08c379a000000000000000000000000000000000000000000000000000000000815260040161099190613e96565b60405180910390fd5b5f81116109dc576040517f08c379a00000000000000000000000000000000000000000000000000000000081526004016109d390613efe565b60405180910390fd5b5f60025f3373ffffffffffffffffffffffffffffffffffffffff1673ffffffffffffffffffffffffffffffffffffffff1681526020019081526020015f2090505f60055f3373ffffffffffffffffffffffffffffffffffffffff1673ffffffffffffffffffffffffffffffffffffffff1681526020019081526020015f20548260030154610a6a9190613f49565b905080831115610aaf576040517f08c379a0000000000000000000000000000000000000000000000000000000008152600401610aa690613fc6565b60405180910390fd5b82826003015f828254610ac29190613f49565b925050819055508260045f828254610ada9190613f49565b925050819055503373ffffffffffffffffffffffffffffffffffffffff166108fc8490811502906040515f60405180830381858888f19350505050158015610b24573d5f5f3e3d5ffd5b503373ffffffffffffffffffffffffffffffffffffffff167f8108595eb6bad3acefa9da467d90cc2217686d5c5ac85460f8b7849c840645fc84604051610b6b91906136f1565b60405180910390a2505050565b60038181548110610b87575f80fd5b905f5260205f20015f915054906101000a900473ffffffffffffffffffffffffffffffffffffffff1681565b5f5f9054906101000a900473ffffffffffffffffffffffffffffffffffffffff1673ffffffffffffffffffffffffffffffffffffffff163373ffffffffffffffffffffffffffffffffffffffff1614610c41576040517f08c379a0000000000000000000000000000000000000000000000000000000008152600401610c3890614054565b60405180910390fd5b600283511015610c86576040517f08c379a0000000000000000000000000000000000000000000000000000000008152600401610c7d906140bc565b60405180910390fd5b428211610cc8576040517f08c379a0000000000000000000000000000000000000000000000000000000008152600401610cbf90614124565b60405180910390fd5b5f8111610d0a576040517f08c379a0000000000000000000000000000000000000000000000000000000008152600401610d019061418c565b60405180910390fd5b5f610e1082610d1991906141aa565b83610d2491906141eb565b90505f60015f815480929190610d399061421e565b9190505590505f60075f8381526020019081526020015f20905081815f018190555086816001019081610d6c9190614405565b5085816002019080519060200190610d859291906133ef565b508481600301819055508281600401819055505f816005015f6101000a81548160ff0219169083151502179055505f5f90505b600380549050811015610f4c575f60038281548110610dda57610dd96144d4565b5b905f5260205f20015f9054906101000a900473ffffffffffffffffffffffffffffffffffffffff16905060025f8273ffffffffffffffffffffffffffffffffffffffff1673ffffffffffffffffffffffffffffffffffffffff1681526020019081526020015f206004015f9054906101000a900460ff1615610f3e5760065f8273ffffffffffffffffffffffffffffffffffffffff1673ffffffffffffffffffffffffffffffffffffffff1681526020019081526020015f2060405180604001604052808681526020015f1515815250908060018154018082558091505060019003905f5260205f2090600202015f909190919091505f820151815f01556020820151816001015f6101000a81548160ff02191690831515021790555050508073ffffffffffffffffffffffffffffffffffffffff16847f1dd8f08a0734aec03f8d2e0370682810be36d34fefba76bc5f794ee8b1eb502660405160405180910390a35b508080600101915050610db8565b50817fb3cd0878f31241f79e869cbd7fca178c54e636986ced953936a3e8928e76b4ad888786604051610f8193929190614501565b60405180910390a250505050505050565b6006602052815f5260405f208181548110610fab575f80fd5b905f5260205f2090600202015f9150915050805f015490806001015f9054906101000a900460ff16905082565b5f82600154811061101e576040517f08c379a000000000000000000000000000000000000000000000000000000000815260040161101590614587565b60405180910390fd5b60075f8581526020019081526020015f206009015f8473ffffffffffffffffffffffffffffffffffffffff1673ffffffffffffffffffffffffffffffffffffffff1681526020019081526020015f205f9054906101000a900460ff1691505092915050565b6002602052805f5260405f205f91509050805f015490806001015490806002015490806003015490806004015f9054906101000a900460ff16905085565b60025f3373ffffffffffffffffffffffffffffffffffffffff1673ffffffffffffffffffffffffffffffffffffffff1681526020019081526020015f206004015f9054906101000a900460ff1661114d576040517f08c379a000000000000000000000000000000000000000000000000000000000815260040161114490613e96565b60405180910390fd5b5f341161118f576040517f08c379a0000000000000000000000000000000000000000000000000000000008152600401611186906145ef565b60405180910390fd5b3460025f3373ffffffffffffffffffffffffffffffffffffffff1673ffffffffffffffffffffffffffffffffffffffff1681526020019081526020015f206003015f8282546111de91906141eb565b925050819055503460045f8282546111f691906141eb565b925050819055503373ffffffffffffffffffffffffffffffffffffffff167f7c717985ac273e663b7f3050f5b15a4388ff6ed952338954f650e2093e13937f3460405161124391906136f1565b60405180910390a2565b806001548110611292576040517f08c379a000000000000000000000000000000000000000000000000000000000815260040161128990614587565b60405180910390fd5b60025f3373ffffffffffffffffffffffffffffffffffffffff1673ffffffffffffffffffffffffffffffffffffffff1681526020019081526020015f206004015f9054906101000a900460ff1661131e576040517f08c379a000000000000000000000000000000000000000000000000000000000815260040161131590613e96565b60405180910390fd5b5f60065f3373ffffffffffffffffffffffffffffffffffffffff1673ffffffffffffffffffffffffffffffffffffffff1681526020019081526020015f2090505f5f90505b81805490508110156114985783828281548110611383576113826144d4565b5b905f5260205f2090600202015f01540361148b578181815481106113aa576113a96144d4565b5b905f5260205f2090600202016001015f9054906101000a900460ff1615611406576040517f08c379a00000000000000000000000000000000000000000000000000000000081526004016113fd90614657565b60405180910390fd5b600182828154811061141b5761141a6144d4565b5b905f5260205f2090600202016001015f6101000a81548160ff0219169083151502179055503373ffffffffffffffffffffffffffffffffffffffff16847f5cef5b680ae1954c85749bfa0a55e99936fcdc06c8171431b7786649c98663a260405160405180910390a350506114d4565b8080600101915050611363565b506040517f08c379a00000000000000000000000000000000000000000000000000000000081526004016114cb906146bf565b60405180910390fd5b5050565b606081600154811061151f576040517f08c379a000000000000000000000000000000000000000000000000000000000815260040161151690614587565b60405180910390fd5b5f60075f8581526020019081526020015f209050806003015442101561157d576040518060400160405280600981526020017f5363686564756c65640000000000000000000000000000000000000000000000815250925050611653565b806004015442116115c6576040518060400160405280600681526020017f4163746976650000000000000000000000000000000000000000000000000000815250925050611653565b806005015f9054906101000a900460ff16611619576040518060400160405280601b81526020017f436f6d706c65746564202d20526573756c74732050656e64696e670000000000815250925050611653565b6040518060400160405280601d81526020017f436f6d706c65746564202d20526573756c7473205075626c69736865640000008152509250505b50919050565b5f5f5f5f5f8573ffffffffffffffffffffffffffffffffffffffff163373ffffffffffffffffffffffffffffffffffffffff1614806116e357505f5f9054906101000a900473ffffffffffffffffffffffffffffffffffffffff1673ffffffffffffffffffffffffffffffffffffffff163373ffffffffffffffffffffffffffffffffffffffff16145b611722576040517f08c379a00000000000000000000000000000000000000000000000000000000081526004016117199061474d565b60405180910390fd5b5f60025f8873ffffffffffffffffffffffffffffffffffffffff1673ffffffffffffffffffffffffffffffffffffffff1681526020019081526020015f206040518060a00160405290815f8201548152602001600182015481526020016002820154815260200160038201548152602001600482015f9054906101000a900460ff1615151515815250509050805f01518160200151826040015183606001518460800151955095509550955095505091939590929450565b60015481565b60045481565b606060065f8373ffffffffffffffffffffffffffffffffffffffff1673ffffffffffffffffffffffffffffffffffffffff1681526020019081526020015f20805480602002602001604051908101604052809291908181526020015f905b82821015611897578382905f5260205f2090600202016040518060400160405290815f8201548152602001600182015f9054906101000a900460ff16151515158152505081526020019060010190611844565b505050509050919050565b60025f3373ffffffffffffffffffffffffffffffffffffffff1673ffffffffffffffffffffffffffffffffffffffff1681526020019081526020015f206004015f9054906101000a900460ff161561192f576040517f08c379a0000000000000000000000000000000000000000000000000000000008152600401611926906147b5565b60405180910390fd5b670de0b6b3a764000034101561197a576040517f08c379a00000000000000000000000000000000000000000000000000000000081526004016119719061481d565b60405180910390fd5b6040518060a001604052808481526020018381526020018281526020013481526020016001151581525060025f3373ffffffffffffffffffffffffffffffffffffffff1673ffffffffffffffffffffffffffffffffffffffff1681526020019081526020015f205f820151815f01556020820151816001015560408201518160020155606082015181600301556080820151816004015f6101000a81548160ff021916908315150217905550905050600333908060018154018082558091505060019003905f5260205f20015f9091909190916101000a81548173ffffffffffffffffffffffffffffffffffffffff021916908373ffffffffffffffffffffffffffffffffffffffff1602179055503460045f828254611a9a91906141eb565b925050819055503373ffffffffffffffffffffffffffffffffffffffff167f4b90d6788928d63c1821907a6a8b95f40d26562d8fe41b105f7489db9966dfcb34604051611ae791906136f1565b60405180910390a2505050565b5f5f9054906101000a900473ffffffffffffffffffffffffffffffffffffffff1681565b5f826001548110611b5e576040517f08c379a0000000000000000000000000000000000000000000000000000000008152600401611b5590614587565b60405180910390fd5b60075f8581526020019081526020015f20600a015f8481526020019081526020015f205491505092915050565b5f60055f8373ffffffffffffffffffffffffffffffffffffffff1673ffffffffffffffffffffffffffffffffffffffff1681526020019081526020015f20549050919050565b5f816001548110611c17576040517f08c379a0000000000000000000000000000000000000000000000000000000008152600401611c0e90614587565b60405180910390fd5b5f60075f8581526020019081526020015f209050806005015f9054906101000a900460ff161580611c6b57507fffffffffffffffffffffffffffffffffffffffffffffffffffffffffffffffff8160060154145b80611c7957505f8160080154145b15611c87575f925050611d28565b5f81600b015f8773ffffffffffffffffffffffffffffffffffffffff1673ffffffffffffffffffffffffffffffffffffffff1681526020019081526020015f205490505f8103611cdb575f93505050611d28565b5f82600a015f846006015481526020019081526020015f20541115611d22578160080154826007015482611d0f91906141aa565b611d199190614868565b93505050611d28565b5f935050505b5092915050565b806001548110611d74576040517f08c379a0000000000000000000000000000000000000000000000000000000008152600401611d6b90614587565b60405180910390fd5b60025f3373ffffffffffffffffffffffffffffffffffffffff1673ffffffffffffffffffffffffffffffffffffffff1681526020019081526020015f206004015f9054906101000a900460ff16611e00576040517f08c379a0000000000000000000000000000000000000000000000000000000008152600401611df790613e96565b60405180910390fd5b5f60075f8481526020019081526020015f209050806005015f9054906101000a900460ff16611e64576040517f08c379a0000000000000000000000000000000000000000000000000000000008152600401611e5b906148e2565b60405180910390fd5b80600c015f3373ffffffffffffffffffffffffffffffffffffffff1673ffffffffffffffffffffffffffffffffffffffff1681526020019081526020015f205f9054906101000a900460ff1615611ef0576040517f08c379a0000000000000000000000000000000000000000000000000000000008152600401611ee79061494a565b60405180910390fd5b806009015f3373ffffffffffffffffffffffffffffffffffffffff1673ffffffffffffffffffffffffffffffffffffffff1681526020019081526020015f205f9054906101000a900460ff16611f7b576040517f08c379a0000000000000000000000000000000000000000000000000000000008152600401611f72906149b2565b60405180910390fd5b5f81600b015f3373ffffffffffffffffffffffffffffffffffffffff1673ffffffffffffffffffffffffffffffffffffffff1681526020019081526020015f205490505f8111612000576040517f08c379a0000000000000000000000000000000000000000000000000000000008152600401611ff790614a40565b60405180910390fd5b600182600c015f3373ffffffffffffffffffffffffffffffffffffffff1673ffffffffffffffffffffffffffffffffffffffff1681526020019081526020015f205f6101000a81548160ff0219169083151502179055507fffffffffffffffffffffffffffffffffffffffffffffffffffffffffffffffff8260060154036120dc578060055f3373ffffffffffffffffffffffffffffffffffffffff1673ffffffffffffffffffffffffffffffffffffffff1681526020019081526020015f205f8282546120ce9190613f49565b925050819055505050612417565b5f82600a015f846006015481526020019081526020015f205403612154578060055f3373ffffffffffffffffffffffffffffffffffffffff1673ffffffffffffffffffffffffffffffffffffffff1681526020019081526020015f205f8282546121469190613f49565b925050819055505050612417565b5f82600b015f3373ffffffffffffffffffffffffffffffffffffffff1673ffffffffffffffffffffffffffffffffffffffff1681526020019081526020015f20541115612414575f5f90505b826002018054905081101561241257826006015481036122f3575f83600801548460070154846121d091906141aa565b6121da9190614868565b90508060025f3373ffffffffffffffffffffffffffffffffffffffff1673ffffffffffffffffffffffffffffffffffffffff1681526020019081526020015f206003015f82825461222b91906141eb565b925050819055508060045f82825461224391906141eb565b925050819055508260055f3373ffffffffffffffffffffffffffffffffffffffff1673ffffffffffffffffffffffffffffffffffffffff1681526020019081526020015f205f8282546122969190613f49565b925050819055503373ffffffffffffffffffffffffffffffffffffffff167ff01da32686223933d8a18a391060918c7f11a3648639edd87ae013e2e273174387836040516122e5929190614a5e565b60405180910390a250612405565b8160025f3373ffffffffffffffffffffffffffffffffffffffff1673ffffffffffffffffffffffffffffffffffffffff1681526020019081526020015f206003015f8282546123429190613f49565b925050819055508160045f82825461235a9190613f49565b925050819055508160055f3373ffffffffffffffffffffffffffffffffffffffff1673ffffffffffffffffffffffffffffffffffffffff1681526020019081526020015f205f8282546123ad9190613f49565b925050819055503373ffffffffffffffffffffffffffffffffffffffff167ff01da32686223933d8a18a391060918c7f11a3648639edd87ae013e2e2731743865f6040516123fc929190614abe565b60405180910390a25b80806001019150506121a0565b505b50505b5050565b816001548110612460576040517f08c379a000000000000000000000000000000000000000000000000000000000815260040161245790614587565b60405180910390fd5b60025f3373ffffffffffffffffffffffffffffffffffffffff1673ffffffffffffffffffffffffffffffffffffffff1681526020019081526020015f206004015f9054906101000a900460ff166124ec576040517f08c379a00000000000000000000000000000000000000000000000000000000081526004016124e390613e96565b60405180910390fd5b5f60075f8581526020019081526020015f2090505f60025f3373ffffffffffffffffffffffffffffffffffffffff1673ffffffffffffffffffffffffffffffffffffffff1681526020019081526020015f2090508160030154421015612587576040517f08c379a000000000000000000000000000000000000000000000000000000000815260040161257e90614b2f565b60405180910390fd5b81600401544211156125ce576040517f08c379a00000000000000000000000000000000000000000000000000000000081526004016125c590614b97565b60405180910390fd5b816009015f3373ffffffffffffffffffffffffffffffffffffffff1673ffffffffffffffffffffffffffffffffffffffff1681526020019081526020015f205f9054906101000a900460ff161561265a576040517f08c379a000000000000000000000000000000000000000000000000000000000815260040161265190614bff565b60405180910390fd5b816002018054905084106126a3576040517f08c379a000000000000000000000000000000000000000000000000000000000815260040161269a90614c67565b60405180910390fd5b670de0b6b3a7640000816003015410156126f2576040517f08c379a00000000000000000000000000000000000000000000000000000000081526004016126e990614ccf565b60405180910390fd5b5f5f90505f60065f3373ffffffffffffffffffffffffffffffffffffffff1673ffffffffffffffffffffffffffffffffffffffff1681526020019081526020015f2090505f5f90505b81805490508110156127b2578782828154811061275b5761275a6144d4565b5b905f5260205f2090600202015f0154036127a557818181548110612782576127816144d4565b5b905f5260205f2090600202016001015f9054906101000a900460ff1692506127b2565b808060010191505061273b565b50816127f3576040517f08c379a00000000000000000000000000000000000000000000000000000000081526004016127ea90614d5d565b60405180910390fd5b5f836003015490508060055f3373ffffffffffffffffffffffffffffffffffffffff1673ffffffffffffffffffffffffffffffffffffffff1681526020019081526020015f205f82825461284791906141eb565b925050819055508085600b015f3373ffffffffffffffffffffffffffffffffffffffff1673ffffffffffffffffffffffffffffffffffffffff1681526020019081526020015f20819055506001856009015f3373ffffffffffffffffffffffffffffffffffffffff1673ffffffffffffffffffffffffffffffffffffffff1681526020019081526020015f205f6101000a81548160ff0219169083151502179055508085600a015f8981526020019081526020015f205f82825461290b91906141eb565b925050819055503373ffffffffffffffffffffffffffffffffffffffff167fa5ae833d0bb1dcd632d98a8b70973e8516812898e19bf27b70071ebc8dc52c01828a60405161295a929190614a5e565b60405180910390a2877fb4c54afd73915f9f756c8dee39fe0b311937871a92261a47747f7a3d32f63a0c33898460405161299693929190614d7b565b60405180910390a25050505050505050565b5f60055f8373ffffffffffffffffffffffffffffffffffffffff1673ffffffffffffffffffffffffffffffffffffffff1681526020019081526020015f205460025f8473ffffffffffffffffffffffffffffffffffffffff1673ffffffffffffffffffffffffffffffffffffffff1681526020019081526020015f2060030154612a329190613f49565b9050919050565b60025f3373ffffffffffffffffffffffffffffffffffffffff1673ffffffffffffffffffffffffffffffffffffffff1681526020019081526020015f206004015f9054906101000a900460ff16612ac5576040517f08c379a0000000000000000000000000000000000000000000000000000000008152600401612abc90613e96565b60405180910390fd5b5f60025f3373ffffffffffffffffffffffffffffffffffffffff1673ffffffffffffffffffffffffffffffffffffffff1681526020019081526020015f20905083815f018190555082816001018190555081816002018190555050505050565b5f5f9054906101000a900473ffffffffffffffffffffffffffffffffffffffff1673ffffffffffffffffffffffffffffffffffffffff163373ffffffffffffffffffffffffffffffffffffffff1614612bb3576040517f08c379a0000000000000000000000000000000000000000000000000000000008152600401612baa90614054565b60405180910390fd5b806001548110612bf8576040517f08c379a0000000000000000000000000000000000000000000000000000000008152600401612bef90614587565b60405180910390fd5b5f60075f8481526020019081526020015f20905080600401544211612c52576040517f08c379a0000000000000000000000000000000000000000000000000000000008152600401612c4990614dfa565b60405180910390fd5b806005015f9054906101000a900460ff1615612ca3576040517f08c379a0000000000000000000000000000000000000000000000000000000008152600401612c9a90614e62565b60405180910390fd5b5f5f5f5f5f90505b8460020180549050811015612d2f578285600a015f8381526020019081526020015f20541115612cf65780935084600a015f8281526020019081526020015f205492505f9150612d22565b8285600a015f8381526020019081526020015f2054148015612d1757505f83115b15612d2157600191505b5b8080600101915050612cab565b505f81612de057846002018481548110612d4c57612d4b6144d4565b5b905f5260205f20018054612d5f90613e1c565b80601f0160208091040260200160405190810160405280929190818152602001828054612d8b90613e1c565b8015612dd65780601f10612dad57610100808354040283529160200191612dd6565b820191905f5260205f20905b815481529060010190602001808311612db957829003601f168201915b5050505050612e17565b6040518060400160405280601781526020017f544945202d204e6f207265646973747269627574696f6e0000000000000000008152505b90505f5f905082612e6e575f5f90505b8660020180549050811015612e6c57858114612e5f5786600a015f8281526020019081526020015f205482612e5c91906141eb565b91505b8080600101915050612e27565b505b8486600601819055508086600701819055508386600801819055506001866005015f6101000a81548160ff0219169083151502179055508160085f8a81526020019081526020015f209081612ec39190614405565b50877fd669546a44855a85b11d2c8185b647a21c6fd25e902e1f54db1ebc3886b54d138383604051612ef6929190614e80565b60405180910390a25050505050505050565b6060816001548110612f4f576040517f08c379a0000000000000000000000000000000000000000000000000000000008152600401612f4690614587565b60405180910390fd5b60075f8481526020019081526020015f20600201805480602002602001604051908101604052809291908181526020015f905b8282101561302a578382905f5260205f20018054612f9f90613e1c565b80601f0160208091040260200160405190810160405280929190818152602001828054612fcb90613e1c565b80156130165780601f10612fed57610100808354040283529160200191613016565b820191905f5260205f20905b815481529060010190602001808311612ff957829003601f168201915b505050505081526020019060010190612f82565b50505050915050919050565b670de0b6b3a764000081565b5f5f9054906101000a900473ffffffffffffffffffffffffffffffffffffffff1673ffffffffffffffffffffffffffffffffffffffff163373ffffffffffffffffffffffffffffffffffffffff16146130d0576040517f08c379a00000000000000000000000000000000000000000000000000000000081526004016130c790614054565b60405180910390fd5b600454476130de9190613f49565b811115613120576040517f08c379a000000000000000000000000000000000000000000000000000000000815260040161311790614ef8565b60405180910390fd5b5f5f9054906101000a900473ffffffffffffffffffffffffffffffffffffffff1673ffffffffffffffffffffffffffffffffffffffff166108fc8290811502906040515f60405180830381858888f19350505050158015613183573d5f5f3e3d5ffd5b5050565b60025f3373ffffffffffffffffffffffffffffffffffffffff1673ffffffffffffffffffffffffffffffffffffffff1681526020019081526020015f206004015f9054906101000a900460ff16613213576040517f08c379a000000000000000000000000000000000000000000000000000000000815260040161320a90613e96565b60405180910390fd5b5f60025f3373ffffffffffffffffffffffffffffffffffffffff1673ffffffffffffffffffffffffffffffffffffffff1681526020019081526020015f2090505f60055f3373ffffffffffffffffffffffffffffffffffffffff1673ffffffffffffffffffffffffffffffffffffffff1681526020019081526020015f2054146132d2576040517f08c379a00000000000000000000000000000000000000000000000000000000081526004016132c990614f86565b60405180910390fd5b5f816003015490508060045f8282546132eb9190613f49565b925050819055505f82600301819055505f826004015f6101000a81548160ff0219169083151502179055503373ffffffffffffffffffffffffffffffffffffffff166108fc8290811502906040515f60405180830381858888f19350505050158015613359573d5f5f3e3d5ffd5b503373ffffffffffffffffffffffffffffffffffffffff167fae563681ccc696fae58fe830f401bc9c043a43ddb9f7c2830b32c3c70d9966e760405160405180910390a23373ffffffffffffffffffffffffffffffffffffffff167f8108595eb6bad3acefa9da467d90cc2217686d5c5ac85460f8b7849c840645fc826040516133e391906136f1565b60405180910390a25050565b828054828255905f5260205f20908101928215613435579160200282015b828111156134345782518290816134249190614405565b509160200191906001019061340d565b5b5090506134429190613446565b5090565b5b80821115613465575f818161345c9190613469565b50600101613447565b5090565b50805461347590613e1c565b5f825580601f1061348657506134a3565b601f0160209004905f5260205f20908101906134a291906134a6565b5b50565b5b808211156134bd575f815f9055506001016134a7565b5090565b5f604051905090565b5f5ffd5b5f5ffd5b5f819050919050565b6134e4816134d2565b81146134ee575f5ffd5b50565b5f813590506134ff816134db565b92915050565b5f6020828403121561351a576135196134ca565b5b5f613527848285016134f1565b91505092915050565b5f81519050919050565b5f82825260208201905092915050565b8281835e5f83830152505050565b5f601f19601f8301169050919050565b5f61357282613530565b61357c818561353a565b935061358c81856020860161354a565b61359581613558565b840191505092915050565b5f6020820190508181035f8301526135b88184613568565b905092915050565b6135c9816134d2565b82525050565b5f8115159050919050565b6135e3816135cf565b82525050565b5f610100820190506135fd5f83018b6135c0565b818103602083015261360f818a613568565b905061361e60408301896135c0565b61362b60608301886135c0565b61363860808301876135da565b61364560a08301866135c0565b61365260c08301856135c0565b61365f60e08301846135c0565b9998505050505050505050565b5f73ffffffffffffffffffffffffffffffffffffffff82169050919050565b5f6136958261366c565b9050919050565b6136a58161368b565b81146136af575f5ffd5b50565b5f813590506136c08161369c565b92915050565b5f602082840312156136db576136da6134ca565b5b5f6136e8848285016136b2565b91505092915050565b5f6020820190506137045f8301846135c0565b92915050565b6137138161368b565b82525050565b5f60208201905061372c5f83018461370a565b92915050565b5f5ffd5b5f5ffd5b7f4e487b71000000000000000000000000000000000000000000000000000000005f52604160045260245ffd5b61377082613558565b810181811067ffffffffffffffff8211171561378f5761378e61373a565b5b80604052505050565b5f6137a16134c1565b90506137ad8282613767565b919050565b5f67ffffffffffffffff8211156137cc576137cb61373a565b5b6137d582613558565b9050602081019050919050565b828183375f83830152505050565b5f6138026137fd846137b2565b613798565b90508281526020810184848401111561381e5761381d613736565b5b6138298482856137e2565b509392505050565b5f82601f83011261384557613844613732565b5b81356138558482602086016137f0565b91505092915050565b5f67ffffffffffffffff8211156138785761387761373a565b5b602082029050602081019050919050565b5f5ffd5b5f61389f61389a8461385e565b613798565b905080838252602082019050602084028301858111156138c2576138c1613889565b5b835b8181101561390957803567ffffffffffffffff8111156138e7576138e6613732565b5b8086016138f48982613831565b855260208501945050506020810190506138c4565b5050509392505050565b5f82601f83011261392757613926613732565b5b813561393784826020860161388d565b91505092915050565b5f5f5f5f60808587031215613958576139576134ca565b5b5f85013567ffffffffffffffff811115613975576139746134ce565b5b61398187828801613831565b945050602085013567ffffffffffffffff8111156139a2576139a16134ce565b5b6139ae87828801613913565b93505060406139bf878288016134f1565b92505060606139d0878288016134f1565b91505092959194509250565b5f5f604083850312156139f2576139f16134ca565b5b5f6139ff858286016136b2565b9250506020613a10858286016134f1565b9150509250929050565b5f604082019050613a2d5f8301856135c0565b613a3a60208301846135da565b9392505050565b5f5f60408385031215613a5757613a566134ca565b5b5f613a64858286016134f1565b9250506020613a75858286016136b2565b9150509250929050565b5f602082019050613a925f8301846135da565b92915050565b5f819050919050565b613aaa81613a98565b82525050565b5f60a082019050613ac35f830188613aa1565b613ad06020830187613aa1565b613add6040830186613aa1565b613aea60608301856135c0565b613af760808301846135da565b9695505050505050565b5f81519050919050565b5f82825260208201905092915050565b5f819050602082019050919050565b613b33816134d2565b82525050565b613b42816135cf565b82525050565b604082015f820151613b5c5f850182613b2a565b506020820151613b6f6020850182613b39565b50505050565b5f613b808383613b48565b60408301905092915050565b5f602082019050919050565b5f613ba282613b01565b613bac8185613b0b565b9350613bb783613b1b565b805f5b83811015613be7578151613bce8882613b75565b9750613bd983613b8c565b925050600181019050613bba565b5085935050505092915050565b5f6020820190508181035f830152613c0c8184613b98565b905092915050565b613c1d81613a98565b8114613c27575f5ffd5b50565b5f81359050613c3881613c14565b92915050565b5f5f5f60608486031215613c5557613c546134ca565b5b5f613c6286828701613c2a565b9350506020613c7386828701613c2a565b9250506040613c8486828701613c2a565b9150509250925092565b5f5f60408385031215613ca457613ca36134ca565b5b5f613cb1858286016134f1565b9250506020613cc2858286016134f1565b9150509250929050565b5f81519050919050565b5f82825260208201905092915050565b5f819050602082019050919050565b5f82825260208201905092915050565b5f613d0f82613530565b613d198185613cf5565b9350613d2981856020860161354a565b613d3281613558565b840191505092915050565b5f613d488383613d05565b905092915050565b5f602082019050919050565b5f613d6682613ccc565b613d708185613cd6565b935083602082028501613d8285613ce6565b805f5b85811015613dbd5784840389528151613d9e8582613d3d565b9450613da983613d50565b925060208a01995050600181019050613d85565b50829750879550505050505092915050565b5f6020820190508181035f830152613de78184613d5c565b905092915050565b7f4e487b71000000000000000000000000000000000000000000000000000000005f52602260045260245ffd5b5f6002820490506001821680613e3357607f821691505b602082108103613e4657613e45613def565b5b50919050565b7f4e6f7420616e20616374697665207375627363726962657200000000000000005f82015250565b5f613e8060188361353a565b9150613e8b82613e4c565b602082019050919050565b5f6020820190508181035f830152613ead81613e74565b9050919050565b7f416d6f756e74206d75737420626520706f7369746976650000000000000000005f82015250565b5f613ee860178361353a565b9150613ef382613eb4565b602082019050919050565b5f6020820190508181035f830152613f1581613edc565b9050919050565b7f4e487b71000000000000000000000000000000000000000000000000000000005f52601160045260245ffd5b5f613f53826134d2565b9150613f5e836134d2565b9250828203905081811115613f7657613f75613f1c565b5b92915050565b7f496e73756666696369656e7420617661696c61626c65207374616b65000000005f82015250565b5f613fb0601c8361353a565b9150613fbb82613f7c565b602082019050919050565b5f6020820190508181035f830152613fdd81613fa4565b9050919050565b7f4f6e6c7920636f6e7472616374206f776e65722063616e20706572666f726d205f8201527f7468697320616374696f6e000000000000000000000000000000000000000000602082015250565b5f61403e602b8361353a565b915061404982613fe4565b604082019050919050565b5f6020820190508181035f83015261406b81614032565b9050919050565b7f4174206c656173742032206f7074696f6e7320726571756972656400000000005f82015250565b5f6140a6601b8361353a565b91506140b182614072565b602082019050919050565b5f6020820190508181035f8301526140d38161409a565b9050919050565b7f53746172742074696d65206d75737420626520696e20746865206675747572655f82015250565b5f61410e60208361353a565b9150614119826140da565b602082019050919050565b5f6020820190508181035f83015261413b81614102565b9050919050565b7f4475726174696f6e206d75737420626520706f736974697665000000000000005f82015250565b5f61417660198361353a565b915061418182614142565b602082019050919050565b5f6020820190508181035f8301526141a38161416a565b9050919050565b5f6141b4826134d2565b91506141bf836134d2565b92508282026141cd816134d2565b915082820484148315176141e4576141e3613f1c565b5b5092915050565b5f6141f5826134d2565b9150614200836134d2565b925082820190508082111561421857614217613f1c565b5b92915050565b5f614228826134d2565b91507fffffffffffffffffffffffffffffffffffffffffffffffffffffffffffffffff820361425a57614259613f1c565b5b600182019050919050565b5f819050815f5260205f209050919050565b5f6020601f8301049050919050565b5f82821b905092915050565b5f600883026142c17fffffffffffffffffffffffffffffffffffffffffffffffffffffffffffffffff82614286565b6142cb8683614286565b95508019841693508086168417925050509392505050565b5f819050919050565b5f6143066143016142fc846134d2565b6142e3565b6134d2565b9050919050565b5f819050919050565b61431f836142ec565b61433361432b8261430d565b848454614292565b825550505050565b5f5f905090565b61434a61433b565b614355818484614316565b505050565b5b818110156143785761436d5f82614342565b60018101905061435b565b5050565b601f8211156143bd5761438e81614265565b61439784614277565b810160208510156143a6578190505b6143ba6143b285614277565b83018261435a565b50505b505050565b5f82821c905092915050565b5f6143dd5f19846008026143c2565b1980831691505092915050565b5f6143f583836143ce565b9150826002028217905092915050565b61440e82613530565b67ffffffffffffffff8111156144275761442661373a565b5b6144318254613e1c565b61443c82828561437c565b5f60209050601f83116001811461446d575f841561445b578287015190505b61446585826143ea565b8655506144cc565b601f19841661447b86614265565b5f5b828110156144a25784890151825560018201915060208501945060208101905061447d565b868310156144bf57848901516144bb601f8916826143ce565b8355505b6001600288020188555050505b505050505050565b7f4e487b71000000000000000000000000000000000000000000000000000000005f52603260045260245ffd5b5f6060820190508181035f8301526145198186613568565b905061452860208301856135c0565b61453560408301846135c0565b949350505050565b7f496e76616c69642063616d706169676e204944000000000000000000000000005f82015250565b5f61457160138361353a565b915061457c8261453d565b602082019050919050565b5f6020820190508181035f83015261459e81614565565b9050919050565b7f4d7573742073656e6420706f73697469766520616d6f756e74000000000000005f82015250565b5f6145d960198361353a565b91506145e4826145a5565b602082019050919050565b5f6020820190508181035f830152614606816145cd565b9050919050565b7f416c72656164792061636b6e6f776c65646765640000000000000000000000005f82015250565b5f61464160148361353a565b915061464c8261460d565b602082019050919050565b5f6020820190508181035f83015261466e81614635565b9050919050565b7f4e6f74696669636174696f6e206e6f7420666f756e64000000000000000000005f82015250565b5f6146a960168361353a565b91506146b482614675565b602082019050919050565b5f6020820190508181035f8301526146d68161469d565b9050919050565b7f4163636573732064656e6965643a204f6e6c79206f776e6572206f72207375625f8201527f736372696265722063616e207669657720696e666f0000000000000000000000602082015250565b5f61473760358361353a565b9150614742826146dd565b604082019050919050565b5f6020820190508181035f8301526147648161472b565b9050919050565b7f416c7265616479207375627363726962656400000000000000000000000000005f82015250565b5f61479f60128361353a565b91506147aa8261476b565b602082019050919050565b5f6020820190508181035f8301526147cc81614793565b9050919050565b7f4d696e696d756d2031204554482f424e42207374616b652072657175697265645f82015250565b5f61480760208361353a565b9150614812826147d3565b602082019050919050565b5f6020820190508181035f830152614834816147fb565b9050919050565b7f4e487b71000000000000000000000000000000000000000000000000000000005f52601260045260245ffd5b5f614872826134d2565b915061487d836134d2565b92508261488d5761488c61483b565b5b828204905092915050565b7f526573756c7473206e6f74207075626c697368656400000000000000000000005f82015250565b5f6148cc60158361353a565b91506148d782614898565b602082019050919050565b5f6020820190508181035f8301526148f9816148c0565b9050919050565b7f52657761726420616c726561647920636c61696d6564000000000000000000005f82015250565b5f61493460168361353a565b915061493f82614900565b602082019050919050565b5f6020820190508181035f83015261496181614928565b9050919050565b7f446964206e6f7420766f746520696e20746869732063616d706169676e0000005f82015250565b5f61499c601d8361353a565b91506149a782614968565b602082019050919050565b5f6020820190508181035f8301526149c981614990565b9050919050565b7f4e6f207374616b65206c6f636b656420666f7220746869732063616d706169675f8201527f6e00000000000000000000000000000000000000000000000000000000000000602082015250565b5f614a2a60218361353a565b9150614a35826149d0565b604082019050919050565b5f6020820190508181035f830152614a5781614a1e565b9050919050565b5f604082019050614a715f8301856135c0565b614a7e60208301846135c0565b9392505050565b5f819050919050565b5f614aa8614aa3614a9e84614a85565b6142e3565b6134d2565b9050919050565b614ab881614a8e565b82525050565b5f604082019050614ad15f8301856135c0565b614ade6020830184614aaf565b9392505050565b7f566f74696e67206e6f74207374617274656400000000000000000000000000005f82015250565b5f614b1960128361353a565b9150614b2482614ae5565b602082019050919050565b5f6020820190508181035f830152614b4681614b0d565b9050919050565b7f566f74696e6720706572696f6420656e646564000000000000000000000000005f82015250565b5f614b8160138361353a565b9150614b8c82614b4d565b602082019050919050565b5f6020820190508181035f830152614bae81614b75565b9050919050565b7f416c726561647920766f746564000000000000000000000000000000000000005f82015250565b5f614be9600d8361353a565b9150614bf482614bb5565b602082019050919050565b5f6020820190508181035f830152614c1681614bdd565b9050919050565b7f496e76616c6964206f7074696f6e20696e6465780000000000000000000000005f82015250565b5f614c5160148361353a565b9150614c5c82614c1d565b602082019050919050565b5f6020820190508181035f830152614c7e81614c45565b9050919050565b7f496e73756666696369656e74207374616b6520746f20766f74650000000000005f82015250565b5f614cb9601a8361353a565b9150614cc482614c85565b602082019050919050565b5f6020820190508181035f830152614ce681614cad565b9050919050565b7f4d7573742061636b6e6f776c65646765206e6f74696669636174696f6e2062655f8201527f666f726520766f74696e67000000000000000000000000000000000000000000602082015250565b5f614d47602b8361353a565b9150614d5282614ced565b604082019050919050565b5f6020820190508181035f830152614d7481614d3b565b9050919050565b5f606082019050614d8e5f83018661370a565b614d9b60208301856135c0565b614da860408301846135c0565b949350505050565b7f566f74696e67207374696c6c20696e2070726f677265737300000000000000005f82015250565b5f614de460188361353a565b9150614def82614db0565b602082019050919050565b5f6020820190508181035f830152614e1181614dd8565b9050919050565b7f526573756c747320616c7265616479207075626c6973686564000000000000005f82015250565b5f614e4c60198361353a565b9150614e5782614e18565b602082019050919050565b5f6020820190508181035f830152614e7981614e40565b9050919050565b5f6040820190508181035f830152614e988185613568565b9050614ea760208301846135c0565b9392505050565b7f43616e6e6f74207265636f766572207374616b65642066756e647300000000005f82015250565b5f614ee2601b8361353a565b9150614eed82614eae565b602082019050919050565b5f6020820190508181035f830152614f0f81614ed6565b9050919050565b7f43616e6e6f7420756e7375627363726962652077697468206c6f636b656420735f8201527f74616b6500000000000000000000000000000000000000000000000000000000602082015250565b5f614f7060248361353a565b9150614f7b82614f16565b604082019050919050565b5f6020820190508181035f830152614f9d81614f64565b905091905056fea2646970667358221220496e6f46a29d0215a80d0235136c7d19bb135aa549bc1c3d02311e80d0ca593364736f6c634300081e0033","linkReferences":{}},"methodIdentifiers":{"MIN_STAKE()":"cb1c2b5c","acknowledgeNotification(uint256)":"5e2b1197","addStake()":"5a627dbc","campaignCount()":"7274e30d","campaignResults(uint256)":"06f4080c","campaigns(uint256)":"141961bc","claimReward(uint256)":"ae169a50","getCampaignOptions(uint256)":"c978be9d","getCampaignStatus(uint256)":"6c19e004","getLockedStake(address)":"9e2c63da","getNotifications(address)":"8a8f63b0","getPotentialReward(address,uint256)":"a5431c9c","getSubscriberInfo(address)":"70f35e7c","getVotes(uint256,uint256)":"91f36633","getVotingPower(address)":"bb4d4436","hasVoted(uint256,address)":"43859632","launchCampaign(string,string[],uint256,uint256)":"336bfa72","lockedStake(address)":"15c6b078","owner()":"8da5cb5b","publishResults(uint256)":"bfad9cc0","recoverETH(uint256)":"d3335553","subscribe(bytes32,bytes32,bytes32)":"8cab04ab","subscriberAddresses(uint256)":"332a0aa2","subscribers(address)":"5745ae28","totalStaked()":"817b1cd2","unsubscribe()":"fcae4484","updateSubscriberInfo(bytes32,bytes32,bytes32)":"bcdab757","userNotifications(address,uint256)":"38c91910","vote(uint256,uint256)":"b384abef","withdrawStake(uint256)":"25d5971f"},"id":0}